:060000000C947B000C943F
:1000060000000C9400000C9400000C9400000C946A
:1000160000000C9400000C9400000C9400000C945A
:1000260000000C9400000C94B6000C9400000C9494
:1000360000000C9400000C9400000C9400000C943A
:1000460000000C9400000C9400000C940000102793
:10005600E80364000A00010000100001100001001E
:100066004744454C00474F464600475F4F4E000009
:1000760000000000000001050000000000004C43E5
:1000860044204F4B00D2F0E0EDF1E8E2E5F02E2EF1
:100096002E0020D0E0E7EEE3F0E5E2200020CAE003
:1000A600EBE8E1F0EEE2EAE0002534640020CAE085
:1000B600EBE8E1F0EEE2EAE0200020C6E4F3202ED1
:1000C6002E2E20202000202020202020202020202E
:1000D60000CEF1E2E5F9202020202020202000306B
:1000E60020F1E5EA0000000001000500EC00000038
:1000F600F894EE27ECBBF1E0FBBFEBBFE5BFF8E100
:10010600F1BDE1BD8DE0A2E0BB27ED938A95E9F74D
:1001160080E098E0A0E6ED930197E9F7EEEEF0E0D7
:1001260085919591009761F0A591B59105901590EF
:10013600BF01F00105900D920197E1F7FB01F0CFA9
:10014600EFE5EDBFE8E0EEBFC0E6D2E00C94FC00C0
:10015600AA93E881E06CE7B9369A349BFECF349ACD
:10016600E4B1F5B1E4C10A921A92FA926A937A93CB
:100176008A939A93AA93BA93EA93FA93EFB7EA9378
:10018600E2EBE2BF0E94CA02E0916002EF5FE093F9
:100196006002E991EFBFF991E991B991A99199911D
:1001A600899179916991F9901990099018951A9306
:1001B60010E010E01F3040F4E2B3A0E2EA27E2BB11
:1001C6000E948F051F5FF6CF95980C94F4021A9340
:1001D60010E010E01F3050F4E2B3A0E2EA27E2BBE1
:1001E60088EE93E00197F1F71F5FF4CF95980C9492
:1001F600F4026D978DE1A0E0B0E0E6E6F0E00E9443
:10020600640610E001E020E030E040E050E00E94AB
:10021600F6020E94C302A1E071D1979AE1E00E9422
:100226009305A4E8B0E093D1A0E092DFE1E00E945C
:100236009305ABE8B0E08BD1A8EEB3E00E940E06C2
:10024600A7E8B0E084D10E940B030E9416030E9427
:100256009705A4EFB1E00E940E064DD17894A091C7
:100266006002A43138F00E94ED021E2FE0E0E09318
:10027600600201C010E0113008F099DF113041F43E
:10028600AD89A93019F0ED89EF5F01C0E0E0ED8B93
:10029600123041F4AE89A93019F0EE89EF5F01C042
:1002A600E0E0EE8B133041F4AF89A93019F0EF8905
:1002B600EF5F01C0E0E0EF8B143011F00C94C50144
:1002C600E0E00E949305A8E9B0E041D101E00E9478
:1002D6009E050E949E050E94A505E0E00E949305EA
:1002E600A3EAB0E034D10E94A9050E94AF05A1F0AF
:1002F6000E94B605A3EBB0E02AD1E7E00E94930581
:10030600DE01589616D1EB89FC89E98BFA8B0E949F
:10031600A5050E94A905E9CF5ADFE0E00E949305F2
:10032600A0ECB0E014D1013061F5A0E011DFEF8759
:10033600F88BEB89FC89F297AF85B889EA17FB073A
:1003460034F4EB89FC89F296AE17BF07CCF00E9415
:10035600CA050E94CA05D9010E940E06979837DF82
:10036600979AA0EDB7E00E940E060E9497050E949C
:100376009705E0E00E949305ACECB0E0E8D000E021
:10038600D2CF01C0979AEF85F889309749F0E0E01F
:10039600EF87E88BECE00E949305A2EDB0E0D7D0A2
:1003A6000E94A9050E94AF0599F00E94B605A7ED27
:1003B600B0E0CDD0E5E00E949305DE015896B9D0B5
:1003C600A8ECB0E00E940E06EB89FC89E98BFA8B5B
:1003D600AD89B0E0E8EEF3E00E943606BF01AE89D3
:1003E600E4E6EA9FF0016E0F7F1FAF89EAE0EA9F1D
:1003F600F001E60FF71F9F0142175307A1F0A9016D
:10040600E0E0EA93A1E0B1D0AD89A05D6FD0A6E9A6
:10041600B0E09DD0AE89A05D69D0AF89A05D66D001
:10042600A5EEB0E094D01BCFFFCFAA93A99AE8819E
:10043600E078F0E00E9422060E942006309711F034
:10044600AE9A01C0AE98E881E074F0E00E942406FE
:100456000E942006309711F0AD9A01C0AD98E88150
:10046600E072F0E0F595E7950E942006309711F0CE
:10047600AC9A01C0AC98E881E071F0E00E942006D9
:10048600309711F0AB9A01C0AB98A9980E948F05DE
:10049600A99AE881E870F0E00E942206309711F0F0
:1004A600AE9A01C0AE98E881E470F0E00E9424069E
:1004B600309711F0AD9A01C0AD98E881E270F0E096
:1004C600F595E795309711F0AC9A01C0AC98E881A4
:1004D600E17011F0AB9A01C0AB98A9980E948F0504
:1004E60026C0AA93A898A881A0DF21C0AA93A89A9B
:1004F600A8819BDF1CC0A1E0F4DF0895AA93EFE773
:10050600E4BBA4E1B0E00E940E06A3E3EADFA2E3A7
:10051600E8DFE881E03011F4A8E201C0AAE2E1DFF9
:10052600A8E0DFDFE8DFA6E0DCDFACE0DADF21967B
:100536000895BA93AA931A93A981BA81EC911E2FB2
:10054600E03019F00E94D005F7CF0C94C803BA9397
:10055600AA931A93E981FA81E4911E2FE03019F0EB
:100566000E94D005F7CF0C94C803AA93E881A0E4B3
:10057600EA02F001E058A981AE0FB3DF2296089592
:10058600E1B3E67AE1BBE2B3E965E2BB08951A930B
:10059600809902C011E00DC0839902C012E009C023
:1005A600869902C013E005C0849902C014E001C018
:1005B60010E0103069F0E5E0E51529F4EFE05E2E75
:1005C600109361020EC0EAE05E1608F4539401C06F
:1005D600552407C01A9310916102E0E0E09361028E
:1005E600E12F19910895E0E8E5BBEFE7E4BBE9ECFC
:1005F600E2BBE0EAE1BBE2EBE2BFEEE4ECBFE5E042
:10060600E3BFE1E0E9BFE0ECE7B9E3E8E6B9089566
:10061600EAE3EABBDB9ADD9ADC98D998A0EDB7E06D
:100626000E940E060895A7EDB0E828D0A9E3B2E827
:1006360025D0A0E4B6EA22D0A4E0B6EC1FD0A0EA0A
:10064600B4E91CD0ACEAB2EC19D0A1E8BAEC16D0E9
:10065600A4EDBEEC13D0A3E8B4EC10D0A0E5B8E945
:100666000DD0A7E1BCEC0AD0A0E0B0EE07D0A0E028
:10067600B8EC04D0A0E0B0EC01D00895BA93AA93E8
:100686000E94580620E030E020E030E0DC98DB985D
:1006960010E01031D0F4ED81E07811F0DD9A01C060
:1006A600DD98DC9A220F331FCA99216083E08A9570
:1006B600F1F7DC98EC81FD81EE0FFF1FEC83FD83E3
:1006C60083E08A95F1F71F5FE4CFDB9A83E08A9592
:1006D600F1F7F9010E945F0626960895AA931A93E8
:1006E60010E0A9E3B2E8CADF83E08A95F1F7DB9868
:1006F600D99AE8EBEA93A0E025D00E94D9050E949A
:10070600D905EDE20E94DE05E4ED0E94DE0510E06B
:10071600E9811E1750F4AA81BB81EE27A10FBE1FE7
:10072600EC910E94DE051F5FF3CF0E94D905E0E041
:100736000E94DE05DB9AD998A1E0B2E89FDF188116
:1007460024960895AA931A93A981A13021F4E9B3B6
:10075600E095E470E1F7DC9810E0183098F4EA814F
:10076600E07811F0DD9A01C0DD98DC9A83E08A9585
:10077600F1F7DC98EA81EE0FEA8383E08A95F1F7D8
:100786001F5FEBCF83E08A95F1F7188123960895D2
:10079600BA93AA931A930A93AA81BB8112960E94CE
:1007A6004906309759F1AA81BB8114960E944906E1
:1007B6008F01309761F00230E0E01E07F0F0F8019B
:1007C60031978F01AA81BB811496ED93FC93AA8180
:1007D600BB811296ED91FD913196FE93EE93319782
:1007E600AC81A083AA81BB810E944906FF232AF01F
:1007F600ED91FD913196FE93EE9306C0AA81BB81E1
:10080600EFEFFFEFED93FC9319810881259608958C
:10081600BA93AA9326970E94560610E0AC85BD852A
:10082600E0E0F0E0ED93FC93EA89FB893196EA8BF0
:10083600FB8B3197E4912E2FE03011F40C943A059E
:10084600E12FE03039F4253211F411E002C00E94A4
:10085600E2050CC1E130A9F4253219F40E94E20543
:1008660004C112E040E000E02D3211F401E0FEC0C8
:100876002B3211F44BE2FAC0203211F440E2F6C0FA
:1008860002C0E23039F450E013E0203311F400687E
:10089600EDC004C0E33011F00C943905203310F09C
:1008A6002A3308F007C0AAE05A9F502DE22FE053E2
:1008B6005E0FDCC0E22FE33649F40E94E905E889C1
:1008C600F989A481AA930E94EF05CFC0E33741F4CA
:1008D6000E94E9050E94F5050E9476051E2F0AC0B2
:1008E600E03761F40E94E9050E94F5050E94820541
:1008F6001E2F086002600F7730E035C0E43611F035
:10090600E93611F4046002C0E53731F4E4E5F0E0BD
:10091600EE83FF8315E00DC0E83511F4086004C0CE
:10092600E83711F00C943805EEE5F0E0EE83FF832E
:1009360014E002FF14C00E94E9050E94FF05AB8582
:10094600AA233AF4EA85FB850E941C06EA87FB8700
:100956004DE2403011F01F5F01C00B7F04C00E94C2
:10096600E9050E94FF0500FD11C0151778F407FF81
:1009760008C002FF04C00B7F242F115001C020E3E2
:1009860001C020E20E94E2055150EFCF312F01FF56
:1009960017C03030A1F003FF06C0EE81FF8125911C
:1009A600EE83FF8305C0AE81BF812D91AE83BF83E9
:1009B6000E94E205503009F051503150EACF4BC049
:1009C60020E3EE81FF810E944D06E887F987EE81DC
:1009D600FF813296EE83FF83E885F985AA85BB857C
:1009E600AE17BF0750F02F5FA885B985EA85FB854E
:1009F600EA1BFB0BEA87FB87EFCF2A3328F003FFBE
:100A060002C0295F01C0295D04FD1AC0213320F40C
:100A1600A885B985119709F409C0531710F000FF8E
:100A260001C013C020E207FF0BC020E3006102FFF4
:100A360007C00B7F4A930E94EF05503009F05150D2
:100A46000E94E205503009F051503150A885B98511
:100A5600129708F0B5CF00FF08C0503031F0515062
:100A6600E0E2EA930E94EF05F8CF10E0DDCEAC8518
:100A7600BD850E9449060E945D0664960895FF9210
:100A8600F82E26970E9458060E940706309719F4FA
:100A9600EFEFFFEF23C0DE0116960E9418068D01C8
:100AA6000E940706EE83FF83E0E0E887E987DE0120
:100AB6001A960E9418060E944906FA93EA931A9318
:100AC6000A93EBECF3E0FA93EA93DE011A96A0DEC2
:100AD6009F01AE81BF81E0E0EC93F9010E945F06C1
:100AE6002A96FF900895BA93AA93A991B991EE27F1
:100AF600FF276D91662311F03196FBCF0895BA93C7
:100B0600AA93AA27BB27E991F9910590002011F035
:100B16001196FBCFFD010895A1E0B0E00C940E06FE
:100B2600EA93A0E00C94B802FE013596FA93EA9394
:100B3600A4E00C947103FE013A96FA93EA93A4E0BA
:100B46000C947103A4E6B0E00C940E06A0E00E949B
:100B5600AB00EB8BFC8B0895E989FA89AB89BC89DC
:100B6600EA17FB070895FE017896FA93EA93EFEAEF
:100B7600F0E0FA93EA93EF89F88D0E9429060E9425
:100B8600510684E00E9442052896E0E0C9CFFE01A6
:100B9600FA93EA93A4E00C947103A12F0E947902C0
:100BA600E981FA813196E983FA830895EAEAEA93BC
:100BB600A1E00C94A503EA93A1E00C94A5032A9363
:100BC600AD85BE85EF85F88909950895E889F98987
:100BD6003497E88BF98B0895AD85BE85EF85F88946
:100BE60009950895A889B98914960E944906EE8345
:100BF600FF83AE81BF810895A889B98914960E94A2
:100C06004906EA87FB870895DE011C960E941806AE
:100C16000E9449060895109639F080ED97E00197F5
:100C2600F1F7A8951197C9F708950024AF0DB01DE7
:100C36000895F195E195F0400895F595E795F595B8
:100C4600E795F595E795F595E79508956F2F660F66
:100C5600660B762F0895FA9FF02DEB9FF00DEA9F15
:100C6600E02DF10D089504D0F6DF0EF4E2DF0895CD
:100C7600E894F7FF02C0DDDF6894B7FF06C0A095D1
:100C8600B095119600F8039400FA0895ED91FC9141
:100C9600119708950590F491E02D08957A936A933B
:100CA600FA93EA9308955A934A933A932A931A9396
:100CB6000A9308955D814C813B812A8119810881BF
:100CC6000895AC0FBD1F05900D928A95E1F7089522
:00000001FF
