:0E00000023C0FECF3DC0FCCFFBCFFACF7AC0AD
:10000E00F8CFF7CFF6CFF5CFF4CFF3CFF2CFF1CFC6
:10001E00F0CFEFCFEECFEDCF1027E80364000A004C
:10002E00010000100001100001004744454C00473C
:10003E004F464600475F4F4E0000F894EE27ECBB4C
:10004E00E5BFF8E1A4B7A77FA4BFF1BDE1BD8DE088
:10005E00A2E0ED938A95E9F780E8A0E6ED938A9504
:10006E00E9F7E0E0E3BBE4BBE5BBEFEDEDBFC7E8CE
:10007E008AC00A921A92FA926A937A938A939A9300
:10008E00AA93BA93EA93FA93EFB7EA93EBB7EF77A3
:10009E00EBBF909AE0918700E757EF9339D1AF917C
:1000AE00EC93E0918700E757A08148D1E09187005B
:1000BE00EF5FE0938700A0918700A43049F4E0E061
:1000CE00E09387001ED1E1E0E0938800A0E236D1F4
:1000DE00EBB7E068EBBF9098E991EFBFF991E9912A
:1000EE00B991A9919991899179916991F990199004
:1000FE0009901895AA93EA93FA93EFB7EA93EDE372
:10010E00E2BFE0918E00EF5F20D1E0918F00F0E032
:10011E00E130A0E0FA0739F4A0918E00A53011F479
:10012E0017D118D117C0309751F4A0918E00AF306F
:10013E0029F40ED1909AE1E0E0938F000BC0E230EB
:10014E00A0E0FA0711F404D104C0E330A0E0FA07EE
:10015E0009F4FED0E991EFBFF991E991A9911895B3
:10016E00AA93A881EC91E03059F0A9810D90A98352
:10017E00A881ED91A883E01511F0E0E002C0F1CF67
:10018E00E1E0229608952F978FE0A0E0E8E3F0E0FB
:10019E0001D1E1E0E1BBE0E0EBB9E8E0EAB9E6E08D
:1001AE00E3B9E0E0E2B9E3E3E9B9AEE3C7D0E0E8F2
:1001BE00E6BDE0E0E6BD49D052D0A3D0AEE3BED05E
:1001CE00E0E0E3BFEDE3E2BFE3ECE6BFECBFE0E06F
:1001DE00E0BFE5E0E3BFE2E0E9BFE0E8EBBFECE063
:1001EE00E5BFE0E8EABF7894A0918800A13059F508
:1001FE00E9E8EA93AC2FA55FB3DFE13021F4E2E04A
:10020E00E0938F00909AE9E8EA93AC2FAA5FA8DFFB
:10021E00E13009F49FD0E9E8EA93AC2FAF5FA0DF9D
:10022E00E13021F49098E3E0E0938F00E0E0E0937A
:10023E008800E0938900E0938A00E0938B00E093BE
:10024E008C00E0938D00D0CFFFCFE7E1E7BBC29AE1
:10025E00C09AC198C498A0EDB7E085D00895A7EDD7
:10026E00B0E827D0A9E9B2E824D0A0E4B6EA21D0BC
:10027E00A4E0B6EC1ED0A0EAB4E91BD0ACEAB2EC16
:10028E0018D0A1E8BAEC15D0A4EDBEEC12D0A3E8BC
:10029E00B4EC0FD0A0E5B8E90CD0A7E1BCEC09D0C6
:1002AE00A0E0B0EE06D0A0E0B8EC03D0A0E0B0EC39
:1002BE002DC0BA93AA9361D020E030E020E030E068
:1002CE00C198C29810E01031B0F4ED81E07811F0D1
:1002DE00C09A01C0C098C19A220F331FB3992160F2
:1002EE003ED0C198EC81FD81EE0FFF1FEC83FD83A4
:1002FE0036D01F5FE8CFC29A32D0F90143D026968E
:10030E000895A1E8BAECD5DFA3E8BAECD2DF0895E0
:10031E0036D000E000E0C498C19810E0183048F4E0
:10032E00C19A000FB39901601AD0C19818D01F5FFF
:10033E00F5CFC49A14D0E02F2AD00895AA935D9BCE
:10034E00FECFE881ECB921960895E0938E000895D2
:10035E00E0E0FBCF9098E0E0E0938F00089583E01B
:10036E008A95F1F70895109639F080ED97E0019790
:10037E00F1F7A8951197C9F708953A932A931A930E
:10038E000A9308953B812A81198108810895099164
:10039E0019910895AC0F05900D928A95E1F7089585
:00000001FF
